:020000040800F2
:10000000005000200D2D00087D2700087F270008E4
:1000100081270008832700088527000800000000CA
:10002000000000000000000000000000872700081A
:1000300089270008000000008B2700088D27000892
:10004000552D0008552D0008552D0008552D000888
:10005000552D0008552D0008552D0008552D000878
:10006000552D0008552D0008552D0008F5270008CE
:10007000552D0008552D0008552D0008552D000858
:10008000552D0008552D0008BD270008552D0008E6
:10009000552D0008552D0008552D0008552D000838
:1000A000552D0008552D0008552D0008552D000828
:1000B00099270008552D0008552D0008552D0008DA
:1000C000552D0008552D0008552D0008552D000808
:1000D000552D0008552D0008552D0008552D0008F8
:1000E000552D0008552D0008552D00080000000072
:1000F0000000000000000000000000000000000000
:0C01000000000000000000005FF808F1A3
:10010C0010B5054C237833B9044B13B10448AFF345
:10011C0000800123237010BD680000200000000047
:10012C00503C000808B5034B1BB103490348AFF31F
:10013C00008008BD000000006C000020503C00084E
:10014C0070470000F0B482B00022019290F8242095
:10015C00012A00F0CC800346012280F824204A6852
:10016C00062A44D80668746B4FF4787090FAA0F5A0
:10017C00B5FA85F5013A02FB05F51F2707FA05F5D7
:10018C0024EA05040D6890FAA0F0B0FA80F000FBA8
:10019C0002F205FA02F2224372630C68092C60D950
:1001AC001F68FD68382090FAA0F6B6FA86F6A4F11E
:1001BC000A0202FB06F64FF0070C0CFA06F625EACB
:1001CC0006058E6890FAA0F0B0FA80F000FB02F2FF
:1001DC0006FA02F22A43FA600A68103A012A5AD93E
:1001EC000020002283F8242002B0F0BC70470C2AB7
:1001FC001BD80668346B4FF4787090FAA0F5B5FAFA
:10020C0085F5073A02FB05F51F2707FA05F524EAE1
:10021C0005040D6890FAA0F0B0FA80F000FB02F231
:10022C0005FA02F222433263B7E70668F56A4FF427
:10023C00787090FAA0F4B4FA84F40D3A02FB04F44A
:10024C001F2707FA04F425EA04050C6890FAA0F0BD
:10025C00B0FA80F000FB02F204FA02F22A43F262D6
:10026C009BE71E683569382292FAA2F0B0FA80F04A
:10027C0000FB04F0072707FA00F025EA0005886860
:10028C0092FAA2F2B2FA82F202FB04F200FA02F241
:10029C002A433261A0E71A681648824205D09A6A4E
:1002AC0042F020029A6201209BE7906810F4000F44
:1002BC001BD1906840F4000090600A68102A01D0AD
:1002CC0000208EE70C4A12680C49A1FB0212920C1A
:1002DC0002EB82025100019102E0019A013A019273
:1002EC00019A002AF9D100207BE7002079E702204F
:1002FC007AE700BF002401400000002083DE1B438E
:10030C0030B583B00023019303689A6812F0010F93
:10031C002ED19A6842F001029A60174B1B68174A5B
:10032C00A2FB03239B0C019302E0019B013B019375
:10033C00019B002BF9D1044600F054FB05462368C1
:10034C009B6813F0010F11D100F04CFB401B0228ED
:10035C00F5D9A36A43F01003A362E36A43F00103E7
:10036C00E362002384F82430012002E0002000E046
:10037C00002003B030BD00BF0000002083DE1B4313
:10038C0038B503689A6812F0010F01D1002038BD0E
:10039C0004469A6822F001029A6000F023FB05469D
:1003AC0023689B6813F0010F0ED000F01BFB401B61
:1003BC000228F5D9A36A43F01003A362E36A43F061
:1003CC000103E3620120E2E70020E0E7002800F0EF
:1003DC00948038B50446836A002B3AD02046FFF748
:1003EC00CFFFA36A13F0100340F0818000287ED168
:1003FC00A26A22F4885222F0020242F00202A262A5
:10040C006268E1691143E568022292FAA2F2B2FA3B
:10041C0082F205FA02F20A43A168B1F5807F21D07D
:10042C0001291CD0616901291FD02568696821F454
:10043C0069410B436B6021688D68314B2B40134332
:10044C008B60A368B3F5807F26D0012B24D00021CC
:10045C002CE0C36280F82430FFF772FEBEE74FF445
:10046C008073DFE74FF48073DCE765B9A16901396C
:10047C004FF4604595FAA5F5B5FA85F5A94041F418
:10048C0000610B43D1E7A16A41F02001A162E16A4E
:10049C0041F00101E162C8E72369013B4FF47001AF
:1004AC0091FAA1F1B1FA81F103FA01F12568EB6A35
:1004BC0023F470030B43EB6223689968114B0B40D8
:1004CC0093420BD0A36A23F0120343F01003A362F0
:1004DC00E36A43F00103E36201200DE00023E362D1
:1004EC00A36A23F0030343F00103A36204E0A36AAD
:1004FC0043F01003A362012038BD0120704700BFF8
:10050C00FDF7E1FFFE0E1FFF70B582B000230193D3
:10051C0090F82430012B68D00446012380F8243055
:10052C00FFF72EFF054628B1002384F82430284617
:10053C0002B070BDA36A23F4885323F0020343F086
:10054C000203A3622A4B1E68022001F06DF8B6FB71
:10055C00F0F04000019002E0019B013B0193019BF4
:10056C00002BF9D12046FFF7CBFE2268936843F0AD
:10057C000803936000F036FA064623689A6812F076
:10058C00080F0FD000F02EFA801B0A28F5D9A36AA9
:10059C0023F0120343F01003A362002384F82430E9
:1005AC000125C4E79A6842F004029A6000F01AFA36
:1005BC00064623689B6813F0040F0FD000F012FA64
:1005CC00801B0A28F5D9A36A23F0120343F0100309
:1005DC00A362002384F824300125A8E7A36A23F042
:1005EC00030343F00103A3629EE702259FE700BFCC
:1005FC0000000020F0B482B0034600220192806813
:10060C0093F82420012A00F03D81012283F8242054
:10061C00002867D14A68012A51D09A6A42F0200218
:10062C009A6201201C68A26812F0010F07D1A2681F
:10063C0022F4E04222F00102CD692A43A2608A69C9
:10064C00012A00F092804A69012A00F09E800A6813
:10065C00092A40F2A8801F68FE68382494FAA4F591
:10066C00B5FA85F50A3A02FB05F54FF0070C0CFAC2
:10067C0005F526EA05068D6894FAA4F4B4FA84F418
:10068C0004FB02F205FA02F23243FA600A68103AED
:10069C00012A40F2A3804A68022A00F0B880032A9B
:1006AC0000F0BF80012A00F09F801C68226A22F4AF
:1006BC007F6222F00F02CD682A4322629DE01D6802
:1006CC00A86B800D80050C684FF4787292FAA2F238
:1006DC00B2FA82F202EB420204FA02F21043A8636D
:1006EC0000209FE74A680869824228D81E68B76BC9
:1006FC004FF4787494FAA4F5B5FA85F5121A03320E
:10070C0002FB05FC1F2505FA0CF545F4401527EAFC
:10071C00050701384FF4401595FAA5F5B5FA85F59E
:10072C00A8400D6894FAA4F4B4FA84F404FB02F221
:10073C0005FA02F202433A43B263002072E71E68E4
:10074C00B56B4FF4787494FAA4F4B4FA84F4121AD6
:10075C00033202FB04F21F2000FA02F242F44012B0
:10076C0025EA0202B26300205CE7CA69B2F5E04FE9
:10077C0005D09A6A42F020029A62012063E71C6855
:10078C00626842F4806262605DE78A692AB91C681B
:10079C00626842F48052626059E79A6A42F0200221
:1007AC009A62012053E71F683E69382494FAA4F535
:1007BC00B5FA85F505FB02F54FF0070C0CFA05F5BB
:1007CC0026EA05068D6894FAA4F4B4FA84F404FBC2
:1007DC0002F205FA02F232433A6157E71C68A2684A
:1007EC0042F40002A26056E71C68626922F47F6240
:1007FC0022F00F02CD682A4362610A68103A012A7E
:10080C0019D9002283F8242002B0F0BC70471C6870
:10081C00A26922F47F6222F00F02CD682A43A26102
:10082C00EBE71C68E26922F47F6222F00F02CD68CC
:10083C002A43E261E1E71A68134CA24205D09A6A96
:10084C0042F020029A620120DBE7946814F4000F56
:10085C00D7D1946844F4000494600A68102AD0D16B
:10086C000A4A12680A49A1FB0212920C02EB82029C
:10087C005100019102E0019A013A0192019A002A79
:10088C00F9D1BEE70220BFE70024014000000020A0
:10089C0083DE1B43074AD36823F4E0631B041B0C61
:1008AC00000200F4E060184340F0BF6040F40030F8
:1008BC00D060704700ED00E030B4174BDB68C3F339
:1008CC000223C3F10704042C28BF04241D1D062D8C
:1008DC0018D9033B4FF0FF3505FA04F421EA040163
:1008EC00994005FA03F322EA0303194300280BDBB2
:1008FC000901C9B200F1604000F5614080F80013B5
:10090C0030BC70470023E5E700F00F000901C9B2C5
:10091C00024B1954F4E700BF00ED00E014ED00E0C9
:10092C0000F01F02400901239340024A42F8203094
:10093C00704700BF00E100E00138B0F1807F0AD2BF
:10094C00064B5860064AF02182F82310002098606C
:10095C0007221A6070470120704700BF10E000E0CA
:10096C0000ED00E0042805D0054A136823F00403C9
:10097C0013607047024A136843F004031360704716
:10098C0010E000E07047000010B5044600F07EFD5A
:10099C00064BA3FB00308009FFF7CEFF0022214657
:1009AC004FF0FF30FFF788FF002010BDD34D6210D1
:1009BC0008B5074A136843F0100313600320FFF7D0
:1009CC0069FF0F20FFF7E0FFFFF7DCFF002008BDF9
:1009DC0000200240024A136801331360704700BFC5
:1009EC0084000020014B1868704700BF8400002071
:1009FC0010B582B00190FFF7F5FF0446FFF7F2FF48
:100A0C00001B019B9842F9D302B010BDF0B482B028
:100A1C0000263546A1E0002C59D0012C00D1CE681F
:100A2C00FF2B68D88446FF2B68D8AC00DCF800207C
:100A3C000F27A74022EA070206FA04F42243CCF857
:100A4C0000204A6812F0805F00F086805E4A94694C
:100A5C0044F001049461926902F001020192019A3E
:100A6C00AC08A71C594A52F8272005F00307BF0011
:100A7C004FF00F0C0CFA07FC22EA0C0C544A904273
:100A8C0042D002F5806290427FD002F580629042A3
:100A9C007DD002F58062904234D0042235E04D4F77
:100AAC00BC4214D00BD94C4FBC4210D007F5803748
:100ABC00BC420CD0A7F58017BC42B1D107E0A7F51A
:100ACC008017BC4203D007F58037BC42A8D18C6894
:100ADC007CB1012C08D042610826A1E7CE6808360B
:100AEC009EE7CE680C369BE70261082698E7002645
:100AFC0096E7042694E700F1040C94E7A5F10804AA
:100B0C00A40093E7032200E00022BA4042EA0C0260
:100B1C0002342E4F47F824204A6812F4803F38D014
:100B2C002E4C22681A4322604A6812F4003F36D0D9
:100B3C002A4C62681A4362604A6812F4801F34D0EF
:100B4C00264CA2681A43A2604A6812F4001F32D0E5
:100B5C00224CE2681343E36001350F2D31D801229A
:100B6C00AA400B6813409A42F6D14C68122CB8D0AC
:100B7C0095D8022CB2D07FF64EAF032CB7D0112CE7
:100B8C007FF44EAFCE6804364AE70122BDE702225D
:100B9C00BBE7124C226822EA03022260C4E70F4C26
:100BAC00626822EA03026260C6E70C4CA26822EA81
:100BBC000302A260C8E7094CE26822EA0303E3607F
:100BCC00CAE702B0F0BC70470010024000000140C0
:100BDC000008014000002110000031100004014009
:100BEC008368194201D10020704701207047C36807
:100BFC005940C160704790F83830012B22D030B486
:100C0C00012280F83820022380F8393004686368A8
:100C1C0023F070036360046863680D682B436360A2
:100C2C000468A36823F08003A3600468A368496880
:100C3C000B43A36080F83920002380F83830184625
:100C4C0030BC70470220704730B583B0044603684F
:100C5C0013F0010F3BD0B14B5B6803F00C03042B7A
:100C6C001ED0AE4B5B6803F00C03082B13D06368EB
:100C7C00B3F5803F68D0002B40F08B8003F18043AC
:100C8C0003F504331A6822F480321A601A6822F4CD
:100C9C0080221A605DE0A14B5B6813F4803FE6D0C4
:100CAC004FF4003393FAA3F39C4B1A684FF40033C0
:100CBC0093FAA3F3B3FA83F303F01F0322FA03F3BB
:100CCC0013F0010F03D06368002B00F09D822368A2
:100CDC0013F0020F00F0BF80904B5B6813F00C0F09
:100CEC0000F095808D4B5B6803F00C03082B00F033
:100CFC0088802369002B00F0E980012292FAA2F38C
:100D0C00B3FA83F39B0003F1844303F584031A6065
:100D1C00FFF768FE0546022393FAA3F37F4B1A688C
:100D2C00022393FAA3F3B3FA83F303F01F0322FA1B
:100D3C0003F313F0010F40F0BA80FFF753FE401B92
:100D4C000228E8D9032066E2744A136843F480331E
:100D5C0013606368002B36D0FFF744FE05464FF452
:100D6C00003393FAA3F36D4B1A684FF4003393FAE4
:100D7C00A3F3B3FA83F303F01F0322FA03F313F084
:100D8C00010FA4D1FFF72EFE401B6428E7D90320E6
:100D9C0041E2B3F5A02F09D0604B1A6822F48032DF
:100DAC001A601A6822F480221A60D2E703F1804399
:100DBC00A3F53C331A6842F480221A601A6842F494
:100DCC0080321A60C5E7FFF70DFE05464FF400337D
:100DDC0093FAA3F3514B1A684FF4003393FAA3F32D
:100DEC00B3FA83F303F01F0322FA03F313F0010F9A
:100DFC003FF46DAFFFF7F6FD401B6428E6D90320E6
:100E0C0009E2464B5B6813F4803F7FF472AF022318
:100E1C0093FAA3F3414B1A68022393FAA3F3B3FAA0
:100E2C0083F303F01F0322FA03F313F0010F04D032
:100E3C002369012B01D00120EDE13848036823F030
:100E4C00F8036169F82292FAA2F2B2FA82F201FA7C
:100E5C0002F213430360236813F0080F65D0A369F3
:100E6C00002B00F09F80012292FAA2F3B3FA83F3D5
:100E7C002B4941F82320FFF7B5FD0546022393FAD1
:100E8C00A3F293FAA3F2254A526A93FAA3F3B3FAA4
:100E9C0083F303F01F0322FA03F313F0010F41D184
:100EAC00FFF7A0FD401B0228E8D90320B3E11B4843
:100EBC00036823F0F8036169F82292FAA2F2B2FAFD
:100ECC0082F201FA02F213430360C4E7012393FA9E
:100EDC00A3F3B3FA83F39B0003F1844303F5840378
:100EEC0000221A60FFF77EFD0546022393FAA3F356
:100EFC000A4B1A68022393FAA3F3B3FA83F303F0B1
:100F0C001F0322FA03F313F0010FA4D0FFF76AFDBD
:100F1C00401B0228E9D903207DE100BF00100240EC
:100F2C00800442420120FFF763FD236813F0040F95
:100F3C005DD1E369002B00F06D81B94A526802F073
:100F4C000C02082A00F06981022B00F0F0804FF0AF
:100F5C00807393FAA3F3B3FA83F39B0003F18443F6
:100F6C0003F5840300221A60FFF73CFD04464FF0A2
:100F7C00007393FAA3F3AA4B1A684FF0007393FA19
:100F8C00A3F3B3FA83F303F01F0322FA03F313F072
:100F9C00010F00F03781FFF725FD001B0228E6D971
:100FAC00032038E1012393FAA3F3B3FA83F39D4AA8
:100FBC00002142F82310FFF715FD0546022393FA92
:100FCC00A3F293FAA3F2964A526A93FAA3F3B3FAF2
:100FDC0083F303F01F0322FA03F313F0010FA4D0E1
:100FEC00FFF700FD401B0228E8D9032013E18C4BCE
:100FFC00DA6942F08052DA61DB6903F080530193C5
:10100C00019B894A136843F480731360FFF7EAFC71
:10101C000546854B1B6813F4807F06D1FFF7E2FC75
:10102C00401B6428F5D90320F5E0E368012B0DD0B3
:10103C00C3B903F1804303F504331A6A22F00102A9
:10104C001A621A6A22F004021A6204E0744A136AE1
:10105C0043F001031362E368002B3FD0FFF7C2FC9F
:10106C0005462CE0052B09D06D4B1A6A22F00102C3
:10107C001A621A6A22F004021A62ECE7684B1A6AC6
:10108C0042F004021A621A6A42F001021A62E2E7A2
:10109C00634B1A6A022393FAA3F3B3FA83F303F0B4
:1010AC001F0322FA03F313F0010F7FF442AFFFF793
:1010BC0099FC401B41F28833984200F2A78002232E
:1010CC0093FAA3F293FAA3F3B3FA83F35B0943F015
:1010DC000203022BDCD0524B5A6ADBE7FFF782FC8F
:1010EC00054615E04E4B1A6A022393FAA3F3B3FAA2
:1010FC0083F303F01F0322FA03F313F0010F3FF401
:10110C0018AFFFF76FFC401B41F2883398427FD831
:10111C00022393FAA3F293FAA3F3B3FA83F35B09D2
:10112C0043F00203022BDDD03D4B5A6ADCE74FF053
:10113C00807393FAA3F3B3FA83F39B0003F1844314
:10114C0003F5840300221A60FFF74CFC05464FF0B0
:10115C00007393FAA3F3324B1A684FF0007393FAAF
:10116C00A3F3B3FA83F303F01F0322FA03F313F090
:10117C00010F06D0FFF736FC401B0228E7D90320ED
:10118C0049E0236AB3F5803F32D025494B6823F4FC
:10119C007413226A606A024313434B604FF08073EE
:1011AC0093FAA3F3B3FA83F39B0003F1844303F59F
:1011BC00840301221A60FFF715FC04464FF00073FC
:1011CC0093FAA3F3164B1A684FF0007393FAA3F338
:1011DC00B3FA83F303F01F0322FA03F313F0010FA6
:1011EC000ED1FFF7FFFB001B0228E7D9032012E00A
:1011FC000B4A536823F40033A1680B435360C4E7D4
:10120C00002008E0002006E0012004E0032002E0BA
:10121C00032000E0002003B030BD0120FBE700BF3D
:10122C0000100240800442420070004010B487B0AD
:10123C001D4C94E80F000DF1180C0CE90F00238ADB
:10124C00ADF80430194B596801F00C03082B28D168
:10125C0001F470134FF4701292FAA2F2B2FA82F205
:10126C00D340634413F8100C11F4803F05D1104B9C
:10127C0003FB00F007B010BC70470C4B5B6803F429
:10128C0000334FF4003292FAA2F2B2FA82F2D34057
:10129C00634413F8142C074BB3FBF2F300FB03F07D
:1012AC00E8E70448E6E700BF683C0008001002408D
:1012BC0000093D0000127A00704B1B6803F0070315
:1012CC008B420CD26D4A136823F007030B43136057
:1012DC00136803F007038B4201D00120704770B5EF
:1012EC00036813F0020F06D0654A536823F0F0032D
:1012FC008468234353600C460546036813F0010FC2
:10130C007AD04368012B2FD0022B42D0022292FAC2
:10131C00A2F25B4A1168022292FAA2F2B2FA82F2AB
:10132C0002F01F0221FA02F212F0010F00F0A48069
:10133C0053494A6822F0030213434B60FFF752FBF8
:10134C0006466B68012B39D0022B46D04C4B5B68A0
:10135C0013F00C0F50D0FFF745FB801B41F2883384
:10136C009842F3D9032086E04FF4003292FAA2F2AD
:10137C00434A11684FF4003292FAA2F2B2FA82F2A6
:10138C0002F01F0221FA02F212F0010FD0D101205B
:10139C0071E04FF0007292FAA2F2394A11684FF0E4
:1013AC00007292FAA2F2B2FA82F202F01F0221FA51
:1013BC0002F212F0010FBBD101205CE0304B5B68F4
:1013CC0003F00C03042B17D0FFF70CFB801B41F22E
:1013DC0088339842F2D903204DE0294B5B6803F027
:1013EC000C03082B08D0FFF7FDFA801B41F2883361
:1013FC009842F2D903203EE0204B1B6803F0070310
:10140C00A3420CD91D4A136823F00703234313602E
:10141C00136803F00703A34201D001202BE02B68D3
:10142C0013F0040F06D0164A536823F4E063E968FE
:10143C000B4353602B6813F0080F07D0104A536806
:10144C0023F46053296943EAC1035360FFF7EEFEAE
:10145C000B4B5B6803F0F003F02292FAA2F2B2FAA3
:10146C0082F2D340074AD35CD840074B18600F2058
:10147C00FFF78AFA002070BD0120FCE70020024033
:10148C0000100240903C000800000020014B18683E
:10149C00704700BF0000002008B5FFF7F7FF074BAF
:1014AC005B6803F4E0634FF4E06292FAA2F2B2FAE2
:1014BC0082F2D340024AD35CD84008BD00100240EF
:1014CC00A03C000808B5FFF7E1FF074B5B6803F48D
:1014DC0060534FF4605292FAA2F2B2FA82F2D34005
:1014EC00024AD35CD84008BD00100240A03C000862
:1014FC00F0B583B00446036813F0010F18D12368CC
:10150C0013F0020F06D0454A536823F44043A168F8
:10151C000B435360236813F0100F7CD03F4A536881
:10152C0023F48003E1680B435360002003B0F0BD4B
:10153C003A4BDA6942F08052DA61DB6903F080538E
:10154C000193019B364A136843F480731360FFF7D1
:10155C0049FA0546324B1B6813F4807F06D1FFF71E
:10156C0041FA401B6428F5D90320DFE72B4B1B6A9B
:10157C0013F440731DD0626802F440729A4218D082
:10158C002648016A21F440764FF4803393FAA3F293
:10159C00B2FA82F2234D012745F8227093FAA3F395
:1015AC00B3FA83F3002245F82320066211F0010FF1
:1015BC0007D11A4A136A23F4407361680B43136210
:1015CC009DE7FFF70FFA054614E0144B1A6A022345
:1015DC0093FAA3F3B3FA83F303F01F0322FA03F392
:1015EC0013F0010FE5D1FFF7FDF9401B41F28833F1
:1015FC0098420ED8022393FAA3F293FAA3F3B3FA08
:10160C0083F35B0943F00203022BDED0034B5A6ACF
:10161C00DDE703208AE7002088E700BF00100240C6
:10162C00007000400004424230B587B00546434C80
:10163C0094E80F000DF1180C0CE90F00238AADF89B
:10164C000430022D5FD0102D03D0012D3AD0002094
:10165C006AE03B4B59681B6813F0807F66D001F43D
:10166C0070134FF4701292FAA2F2B2FA82F2D340D3
:10167C0006AA134413F8100C11F4803F1ED0304B03
:10168C005B6803F400334FF4003292FAA2F2B2FA20
:10169C0082F2D34006AA134413F8142C294BB3FB43
:1016AC00F2F300FB03F0264B5B6813F4800F3BD185
:1016BC004000254BA3FB0030400835E0234B03FBD7
:1016CC0000F0F0E71E4B1B6A40F202321A40B2F5F2
:1016DC00817F2DD003F44073B3F5007F04D0B3F5B4
:1016EC00407F09D000201FE0154A526A12F0020F09
:1016FC00F5D049F6404017E0114B1B6813F4003F3E
:10170C0019D1002010E0FFF7DDFE0D4B5B6803F4F0
:10171C0040434FF4804292FAA2F2B2FA82F2D340E2
:10172C0001335B00B0FBF3F007B030BD0020FBE7EA
:10173C004FF40040F8E74FF22440F5E77C3C0008FA
:10174C000010024000127A00ABAAAAAA00093D00C0
:10175C0070B4036A23F001030362036A426884696C
:10176C0024F073040D6845EA040623F002048B6828
:10177C0023430D4DA84209D00B4DA8420DD0426019
:10178C0086614A684263036270BC704723F00803A9
:10179C00CC68234323F00403EEE722F440724C6937
:1017AC0014438A692243EAE7002C014030B4036AEF
:1017BC0023F480730362036A4268C46924F07304DF
:1017CC000D682C4323F400738D6843EA05230F4DF9
:1017DC00A84209D00D4DA8420ED04260C4614A689F
:1017EC00C263036230BC704723F40063CD6843EAE4
:1017FC00052323F48063EDE722F440524D6942EA5D
:10180C0005128D6942EA0512E7E700BF002C014082
:10181C0030B4036A23F480530362036A4468C269D8
:10182C0022F4E6420D6842EA052223F400538D6847
:10183C0043EA0533074DA84206D04460C2614A68AA
:10184C000264036230BC704724F480444D6944EA5E
:10185C008514F2E7002C014010B4036A046A24F0EA
:10186C0001040462846924F0F00444EA021223F0B7
:10187C000A030B438261036210BC704710B4036A05
:10188C0023F0100303628469036A24F4704444EA6D
:10189C00023223F0A00343EA01138261036210BCFD
:1018AC00704710B4846824F47F4442EA03230B434A
:1018BC002343836010BC704710B50468A26822F003
:1018CC0070024B68134323F007030A681343A360A9
:1018DC004B68502B1ED00AD9602B21D0702B05D110
:1018EC000B698A68C9680068FFF7DBFF10BD402BE5
:1018FC00FCD103681C6A1A6A22F001021A6202689F
:10190C00936923F0F003096943EA011393610368B7
:10191C001C62EBE70A6989680068FFF79DFFE5E741
:10192C000A6989680068FFF7A9FFDFE7704702239F
:10193C0080F839300268136843F001031360012307
:10194C0080F8393000207047704738B590F838303F
:10195C00012B18D00446012580F83850022380F85A
:10196C003930FFF7A9FF2268D36823F04003D36016
:10197C002268D36823F48043D36084F83950002064
:10198C0084F8380038BD0220FCE700000368194ACF
:10199C0090420AD0B0F1804F07D0A2F59432904219
:1019AC0003D002F58062904203D123F070034A68A1
:1019BC001343104A90420AD0B0F1804F07D0A2F5E1
:1019CC009432904203D002F58062904203D123F40A
:1019DC004073CA68134303608B68C3620B688362ED
:1019EC00044B984202D00123436170470B69036397
:1019FC00F9E700BF002C0140A8B110B5044690F8DF
:101A0C0039305BB1022384F83930211D2068FFF78F
:101A1C00BDFF012384F83930002010BD80F8383028
:101A2C00FFF784FFEEE701207047A8B110B504461C
:101A3C0090F839305BB1022384F83930211D2068CD
:101A4C00FFF7A4FF012384F83930002010BD80F883
:101A5C003830FFF779FFEEE70120704730B4036AA6
:101A6C0023F010030362036A4468826922F4E6429D
:101A7C000D6842EA052223F020038D6843EA051322
:101A8C000E4DA84209D00D4DA8420ED04460826183
:101A9C004A688263036230BC704723F08003CD68D0
:101AAC0043EA051323F04003EDE724F440644D6949
:101ABC0044EA85048D6944EA8504E7E7002C01407B
:101ACC0038B590F83830012B66D00D46044601230A
:101ADC0080F83830022380F839300C2A1AD8DFE825
:101AEC0002F0071919192019191934191919470075
:101AFC000068FFF72DFE2268936943F00803936199
:101B0C002268936923F0040393612268936929691D
:101B1C000B439361012384F83930002084F838009A
:101B2C0038BD0068FFF79AFF2268936943F400639D
:101B3C0093612268936923F48063936122689369AB
:101B4C00296943EA01239361E4E70068FFF72EFE5D
:101B5C002268D36943F00803D3612268D36923F068
:101B6C000403D3612268D36929690B43D361D1E79C
:101B7C000068FFF74DFE2268D36943F40063D3611C
:101B8C002268D36923F48063D3612268D3692969FD
:101B9C0043EA0123D361BDE70220C1E728B310B4A7
:101BAC00024690F821300BB980F82030022382F8DD
:101BBC0021301068016821F47F5121F03001536805
:101BCC0094682343D46823431469234354692343FF
:101BDC0094692343D46923430B430360002050636F
:101BEC00012382F8213010BC70470120704700009F
:101BFC002DE9F84305460268136923F44053C16884
:101C0C000B43136183680269134342691A430168E9
:101C1C00CB6823F4B05323F00C031343CB6002685E
:101C2C00536923F4407381690B4353610268594B28
:101C3C009A4257D0FFF730FC00EB800000EB80009D
:101C4C006C68A400B0FBF4F4534FA7FB0434640994
:101C5C002601FFF721FC00EB800000EB80006C6894
:101C6C00A400B0FBF4F9FFF717FC00EB800000EBCD
:101C7C0080006C68A400B0FBF4F4A7FB0434640986
:101C8C004FF0640808FB149424013234A7FB04348D
:101C9C00640904F0F0043444FFF7FEFB00EB800011
:101CAC0000EB80006E68B600B0FBF6F6FFF7F4FBB5
:101CBC0000EB800000EB80006B689B00B0FBF3F046
:101CCC00A7FB0030400908FB10684FEA081808F120
:101CDC003208A7FB0837C7F343172B6827449F60CC
:101CEC00BDE8F883FFF7EEFB00EB800000EB800013
:101CFC006C68A400B0FBF4F4274FA7FB0434640910
:101D0C002601FFF7DFFB00EB800000EB80006C6826
:101D1C00A400B0FBF4F9FFF7D5FB00EB800000EB5F
:101D2C0080006C68A400B0FBF4F4A7FB04346409D5
:101D3C004FF0640808FB149424013234A7FB0434DC
:101D4C00640904F0F0043444FFF7BCFB00EB8000A2
:101D5C0000EB80006E68B600B0FBF6F6FFF7B2FB46
:101D6C0000EB800000EB80006B689B00B0FBF3F095
:101D7C00A7FB0030400908FB10684FEA081808F16F
:101D8C003208A7FB0837C7F343172B6827449F601B
:101D9C00A6E700BF003801401F85EB512DE9F0414B
:101DAC0005460E4690461C46FEF71CFE0746B8F14B
:101DBC00000F29D02B681B6836EA030351D1B4F10C
:101DCC00FF3FF7D024B1FEF70DFEC01BA042F1D9A6
:101DDC002A68D36823F08003D3602A68D36823F081
:101DEC002003D3602A68D36823F48073D3602A68F5
:101DFC00536923F001035361012385F83930002323
:101E0C0085F8383003202AE02B681B6836EA030378
:101E1C0024D0B4F1FF3FF7D024B1FEF7E3FDC01B93
:101E2C00A042F1D92A68D36823F08003D3602A68D2
:101E3C00D36823F02003D3602A68D36823F480731B
:101E4C00D3602A68536923F001035361012385F899
:101E5C003930002385F83830032000E00020BDE83D
:101E6C00F0810020FBE7704748B310B5044690F8AA
:101E7C003930FBB1022384F839302268D36823F45B
:101E8C000053D3602046FFF7B3FE2268136923F496
:101E9C00904313612268536923F02A03536122682B
:101EAC00D36843F40053D3600020E063012384F82B
:101EBC00393010BD80F83830FFF7D5FFDAE7012054
:101ECC00704770B504460D461E4690F83930DBB2AB
:101EDC00012B01D0222B59D1002D5AD0002A5AD0D7
:101EEC0094F83830012B58D0012384F83830002373
:101EFC00E36394F83930DBB2222B05D0122384F83B
:101F0C003930A284E28413E0322384F83930F8E7C4
:101F1C003346002280212046FFF740FF00283ED1A7
:101F2C002B882268C3F3080353602369A3B90235D5
:101F3C00E38C9BB1013BE384A368B3F5805FE7D0EE
:101F4C003346002280212046FFF728FF48BB2A7821
:101F5C0023685A600135EBE70135E9E73346002287
:101F6C0040212046FFF71AFF0346E0B994F83920C8
:101F7C00D2B2322A06D0012284F83920002284F809
:101F8C00382004E0222284F83920F7E7022318468F
:101F9C0070BD0123FBE70123F9E70223F7E70323D5
:101FAC00F5E70323F3E70323F1E7000010B586B050
:101FBC00114B9A6942F008029A619B6903F008037D
:101FCC000193019B012303930023049303230593A3
:101FDC0006A9382341F8103D084C2046FEF716FDA3
:101FEC004FF4002323614FF4801323614FF400134B
:101FFC00236106B010BD00BF00100240000C014070
:10200C0000B587B00D4B9A6942F008029A619B6942
:10201C0003F008030193019B002303930123049312
:10202C000223059306A94FF4807341F8103D044830
:10203C00FEF7ECFC07B05DF804FB00BF001002409B
:10204C00000C014000B587B00C4B9A6942F00802B5
:10205C009A619B6903F008030193019B022303938C
:10206C00012304930323059306A9C02341F8103DD3
:10207C000348FEF7CBFC07B05DF804FB00100240F0
:10208C00000C014070B586B0154B9A6942F0040201
:10209C009A619A6902F004020092009A9A6942F0DD
:1020AC0008029A619B6903F008030193019B4FF4AA
:1020BC00E0630293022603960025049503240594FD
:1020CC0002A90848FEF7A2FC4FF460430293039662
:1020DC000495059402A90448FEF798FC06B070BD5F
:1020EC000010024000080140000C014070B588B09F
:1020FC00234B9A6942F004029A619A6902F0040235
:10210C000092009A9A6942F004029A619A6902F06C
:10211C0004020192019A9A6942F008029A619A6942
:10212C0002F008020292029A9A6942F008029A613D
:10213C009B6903F008030393039B0323059300237C
:10214C00069308ACE02344F8103D0E4E2146304671
:10215C00FEF75CFC022304930B4D21462846FEF748
:10216C0055FC0823049321463046FEF74FFC01230F
:10217C00049321462846FEF749FC08B070BD00BF09
:10218C000010024000080140000C014008B5FFF7A8
:10219C000DFFFFF735FFFFF755FFFFF773FFFFF755
:1021AC00A5FF08BD00B583B00D4B9A6942F480427F
:1021BC009A619B6903F480430193019B09480A4B84
:1021CC0003604FF4E133436000238360C360036119
:1021DC0083610C234361FFF747FE03B05DF804FBFA
:1021EC0000100240140100200038014008B54FF4E3
:1021FC0080710448FEF7F4FC08B1002008BD0120F2
:10220C00FCE700BF000C014030B583B0164B5A6997
:10221C0042F001025A615B6903F001030193019BD7
:10222C00124C134B236000256560A5608023E3608E
:10223C004FF4807323614FF4806363612023A361A7
:10224C004FF40053E3612046FFF7A8FC094B1C62D6
:10225C0063622A4601210B20FEF72EFB0B20FEF7B2
:10226C005FFB03B030BD00BF0010024088000020AF
:10227C0008000240540100202DE9F04391B0FFF713
:10228C00C3FF4FF00208CDF830804FF480430E931B
:10229C000CA8FFF72DF93C4B9A6942F400729A6135
:1022AC009B6903F400730093009B384C384D2560F8
:1022BC00002666600127A760E6604FF00309C4F8AA
:1022CC0010906661A7614FF40023E3612046FEF78E
:1022DC007DF8AB6843F48013AB60072309930B962E
:1022EC000A9709A92046FDF72DFF062309930B96A3
:1022FC00CDF8288009A92046FDF724FF0523099372
:10230C000B96CDF8289009A92046FDF71BFF214B11
:10231C00214A9A60214ADA60C3F804901A683A4359
:10232C001A60AB6843F48073AB600496059706960D
:10233C0007964FF4E0430893092301930297CDF8D5
:10234C000C8001A92046FEF755F932463946122079
:10235C00FEF7B2FA1220FEF7E3FAAB6843F400433F
:10236C00AB606B6843F080036B60AB6843F40013A5
:10237C00AB602046FEF7C8F8AB6843F48003AB6053
:10238C0011B0BDE8F08300BF0010024054010020E2
:10239C0000240140080002404C240140420200206D
:1023AC002DE9F0418AB02A4B9A6942F400629A6195
:1023BC009B6903F400630093009B264C264E266019
:1023CC00002525616560DFF89C80D8F80030234F2C
:1023DC00A7FB03239B0B013BE360A56065612046D3
:1023EC00FFF723FB60230393D8F80030A7FB0323EC
:1023FC009B0B013B1A4AA2FB0323DB0804930595B4
:10240C0006950795089509952A4603A92046FFF7D6
:10241C0057FB042203A92046FFF752FB082203A90D
:10242C002046FFF74DFB0C220DEB02012046FFF777
:10243C0047FB736C43F0050373647023019302959F
:10244C0001A92046FEF7D7FB0AB0BDE8F08100BF1A
:10245C0000100240C0010020002C01405917B7D1D8
:10246C00CDCCCCCC0000002030B583B0164BDA6953
:10247C0042F00102DA61DB6903F001030193019B75
:10248C0012484FF08045056000240461104B1B6816
:10249C00104AA2FB03239B0C013B43604FF6FF73D6
:1024AC00C36044618460FFF7A7FAEB6843F0010353
:1024BC00EB60224621461C20FEF7FEF91C20FEF79D
:1024CC002FFA03B030BD00BF001002408401002081
:1024DC000000002083DE1B4310B582B0114BDA697B
:1024EC0042F00402DA61DB6903F004030193019BFF
:1024FC000D4C0E4B2360002222610D4B1B680D49C5
:10250C00A1FB03139B0C013B63604FF6FF73E3606D
:10251C006261A2602046FFF76FFA2046FFF707FAC8
:10252C0002B010BD00100240C000002000080040A6
:10253C000000002083DE1B4330B589B0174BDA69ED
:10254C0042F00202DA61DB6903F002030093009BA4
:10255C00134C144B236000256560A560124B1B685F
:10256C00124AA2FB03239B0C03EB83035A00E26089
:10257C00256165612046FFF73FFA05230393049517
:10258C0003A92046FFF7E1F920230193029501A945
:10259C002046FEF730FB09B030BD00BF00100240F2
:1025AC00FC010020000400400000002083DE1B43DF
:1025BC0000B583B0134B9A6942F001029A619B6992
:1025CC0003F001030193019B0F4A536823F0E0636E
:1025DC0043F000735360536843F004035360FEF7F9
:1025EC00E7F900F013F8FFF7D1FDFFF7DBFDFFF77C
:1025FC0043FEFFF7D5FEFFF737FFFFF76DFFFFF741
:10260C009BFFFEE7001002400000014070B590B047
:10261C000225069500240794099401230A9310239C
:10262C000B9308940D950E944FF460130F9306A81A
:10263C00FEF70AFB0F2601960295039405944FF4BE
:10264C0080630493294601A8FEF736FEFEF71EFFB1
:10265C00084BA3FB00308009FEF76EF90420FEF74F
:10266C0081F9224631464FF0FF30FEF725F910B0C4
:10267C0070BD00BFD34D621000B583B002A941F804
:10268C00040D642301220348FFF71BFC019803B0DF
:10269C005DF804FB1401002070B50D4616460024AD
:1026AC0004E0AFF30080287001340135B442F8DB4C
:1026BC00304670BD70B51646002405E04D1C0878F8
:1026CC00FFF7DAFF01342946B442F7DB304670BD20
:1026DC0003460B4A126842B1094A106803446A4621
:1026EC00934206D8064A13607047054A05491160A3
:1026FC00F2E7054B0C221A604FF0FF30704700BF19
:10270C00FC00002068020020600200204FF0FF3027
:10271C0070474FF400534B60002070470120704706
:10272C00002070470F4B1A6842F001021A6059687A
:10273C000D4A0A405A601A6822F0847222F48032E0
:10274C001A601A6822F480221A605A6822F4FE0277
:10275C005A604FF41F029A60044B4FF000629A606B
:10276C00704700BF001002400000FFF800ED00E0D1
:10277C007047FEE7FEE7FEE7FEE7704770477047DD
:10278C0008B5FEF727F900F0D7F908BD08B54FF0EA
:10279C0080431B6913F0010F00D108BD4FF080423C
:1027AC00136923F00103136100F0E6F8F5E700006C
:1027BC000A4B10221A6103F5C0531B6813F0040F67
:1027CC0007D0074B1A6822F004021A60DA6B054B2B
:1027DC001A82024B4FF480121A617047000C0140B0
:1027EC00002401403802002008B500F0E3F8034A49
:1027FC00536843F00203536008BD00BF0000024061
:10280C00084A136823F00103136002F5FE32536883
:10281C0043F0020353600832136823F00203136081
:10282C00704700BF00040040064A136843F00103E0
:10283C00136002F5FE320832136843F00203136092
:10284C00704700BF00040040044B1A6842F00102BC
:10285C001A605A6C42F400425A647047002C0140D2
:10286C00044B1A6822F001021A605A6C22F40042DE
:10287C005A647047002C0140024B58639863D8632C
:10288C0018647047002C0140044A00235362044B27
:10289C0033F8103043F4805313627047002C01401E
:1028AC00A83C00084FF0804300225A621A6842F09C
:1028BC0001021A60DA6842F00102DA6070474FF0E8
:1028CC0080431A6922F001021A611A6822F001028F
:1028DC001A60DA6822F00102DA6070474FF0804328
:1028EC00D86270471E4A538991890B44D1890B4495
:1028FC001C4981FB03139BB21B490B8053789278C4
:10290C0003EB43035900194B0B449B5C012B11D077
:10291C00174B9B5C1A1D124B03EB42035A88124B4C
:10292C001B889BB29A4218D9124B4FF400221A61A1
:10293C00012070470E4B9B5C1A1D094B03EB4203A5
:10294C005A88094B1B889BB29A4204D2094B082225
:10295C001A6101207047002070470020704700BFAB
:10296C00380200205655555500010020F43C000853
:10297C00EC3C0008000C014010B50C4C6378A178BD
:10298C0003EB43035A000A4B1344585CA070FFF747
:10299C007BFF002384F8263084F82430022384F84B
:1029AC002530FFF78CFFFFF73FFF10BD38020020EA
:1029BC00003D000838B5324B93F82630002B2FD150
:1029CC002F4B93F825303BBB2E4B5A6A2E4B1A607B
:1029DC002B4B93F824301BB92B4B1A68284B5A8479
:1029EC00FFF780FFE8B1264A92F82430013382F8D1
:1029FC002430234B93F82430012B17D8214B5A6ADF
:102A0C004EF660239A420BD91D4B1B78022B07D133
:102A1C001B4B03221A7003E0013B194A82F8253044
:102A2C0038BD174B002283F82420E2E7154B002217
:102A3C005A62154C2368124D2B8123686A8C9A1AA2
:102A4C0023689B1A236023685B082360206880B28C
:102A5C00FFF744FFFFF726FFFFF7D2FE23682A8912
:102A6C0013442B81012385F8263020210748FEF7DB
:102A7C00BEF8074A936843F400139360BEE700BFA7
:102A8C00380200200008004008010020000C014022
:102A9C000024014038B5224800F0F8F9214A138887
:102AAC0001331380204C44F620632381002584F8E5
:102ABC00245084F8265084F825506378A17803EBD1
:102ACC0043035A00194B13445B5CA370E088FFF777
:102ADC00D3FEA078FFF7D8FEFFF7B6FE2089FFF7EC
:102AEC00FDFEFFF7DFFE124B5D62012584F82650D8
:102AFC0003F592331A6922F001021A611A6922F065
:102B0C0010021A61DA682A43DA60DA6842F01002BD
:102B1C00DA60FFF789FE074800F0B8F9284638BD9F
:102B2C00B43C00080401002038020020003D0008DD
:102B3C0000080040C83C000810B5644A13880133F3
:102B4C009BB21380624A1278012A13D0022A2ED02B
:102B5C00032A33D0042A4DD05C4B1A885D4BA3FB5F
:102B6C000213DB0803EB83035900521A92B2002ABA
:102B7C0075D010BDFFF774FE574BDA6822F00102D6
:102B8C00DA60DA6822F01002DA60FFF798FEFFF7DD
:102B9C0037FE524B4FF400221A614FF480121A6127
:102BAC004FF400121A614A4B00221A70D4E7B3F5A5
:102BBC00FA7FD1D9464B04221A70CDE7444BD98801
:102BCC00474B1B68474AA2FB03239B0B013B464A1E
:102BDC00A2FB0302B1EB520F06D23E4AA2FB032327
:102BEC0001EB13133A4AD380394B02221A70FFF7C8
:102BFC0051FFB1E736490B8A642202FB03F23B4BCF
:102C0C00A3FB0203D21A03EB5203C3F3CF238B8033
:102C1C00192B12D82D4B1A88354BA3FB02139B0989
:102C2C004FF47A7101FB13239BB2002B94D1284BE8
:102C3C00198A304800F0B6F88EE7294A1068294AFC
:102C4C00A2FB0020800B013800FB03F02A4BA3FBF6
:102C5C000030C0F34F10C880FFF70EFEDAE7FFF725
:102C6C00C5FA90B9254B1B78052B82D9234B002232
:102C7C001A70174B1B786BB1042B02D0022B7FF40C
:102C8C0078AF134B01221A7073E71C4A1378013387
:102C9C0013706EE70E4A0223137001235370002445
:102CAC0094700F4B1B680F49A1FB03139B0B03EB99
:102CBC00830303EB8303193B0F49A1FB03135B094C
:102CCC00D380FFF7E7FE014B1C8052E70601002082
:102CDC0038020020CDCCCCCC002C0140000C0140A3
:102CEC00000000205917B7D1ABAAAAAA0101100005
:102CFC00D34D6210DC3C00081F85EB510201002013
:102D0C00002103E00B4B5B58435004310A480B4B3A
:102D1C0042189A42F6D30A4A02E0002342F8043BD6
:102D2C00084B9A42F9D3FFF7FDFC00F00FF8FFF7C0
:102D3C003FFC7047AC3D00080000002068000020FC
:102D4C006800002064020020FEE7000070B500253A
:102D5C000C4E0D4CA41BA410A54209D100F072FF1F
:102D6C0000250A4E0A4CA41BA410A54205D170BD27
:102D7C0056F8253098470135EEE756F82530984738
:102D8C000135F2E7A43D0008A43D0008A43D00086D
:102D9C00A83D000803460244934200D1704703F853
:102DAC00011BF9E70FB40A4B13B51C6824B1A369D6
:102DBC0013B9204600F022FA05AB049AA16820460C
:102DCC00019300F0D7FB02B0BDE8104004B070478F
:102DDC000400002070B50E46054618B183690BB986
:102DEC0000F00CFAAB69AC6813B9284600F006FA8F
:102DFC00234B9C4217D16C68A3891B071DD52369F3
:102E0C00DBB1013EA36816F8011F013BA360E9B9D1
:102E1C00002B2EDA22460A21284600F03FF801301A
:102E2C0011D00A2011E0174B9C4201D1AC68E3E7AA
:102E3C00154B9C4208BFEC68DEE72146284600F0A3
:102E4C007FF80028DDD04FF0FF3070BD002B04DA86
:102E5C00A2699A4206DC0A2904D023685A1C226013
:102E6C001970CFE72246284600F018F80130C9D176
:102E7C00E9E70A2023685A1C22601870E5E700BFB6
:102E8C00303D0008503D0008103D0008024B014643
:102E9C001868FFF79FBF00BF04000020F8B50E466E
:102EAC001446054618B183690BB900F0A7F9214BFC
:102EBC009C422AD16C68A369A360A3891A072ED5FA
:102ECC00236963B323692068F6B2C01A6369374675
:102EDC00834204DC2146284600F026F928BBA3686F
:102EEC000130013BA36023685A1C22601E70636989
:102EFC00834204D0A389DB0719D50A2E17D12146AA
:102F0C00284600F011F990B10FE00B4B9C4201D117
:102F1C00AC68D0E7094B9C4208BFEC68CBE7214674
:102F2C00284600F00DF80028CCD04FF0FF3738467B
:102F3C00F8BD00BF303D0008503D0008103D0008B2
:102F4C00324B70B51D6806460C4625B1AB6913B9FA
:102F5C00284600F053F92E4B9C420FD16C68B4F903
:102F6C000C309AB215072CD4D00611D40922326039
:102F7C0043F04003A3814FF0FF303EE0254B9C42D1
:102F8C0001D1AC68EBE7244B9C4208BFEC68E6E748
:102F9C00510712D5616B41B104F14403994202D03F
:102FAC00304600F019FA00236363A38923F024034D
:102FBC00A3810023636023692360A38943F0080382
:102FCC00A38123694BB9A38903F42073B3F5007F64
:102FDC0003D02146304600F0BFF9A28912F001035C
:102FEC000CD00023A36063695B42A361236953B9CE
:102FFC00B4F90C3013F08000BAD170BD920758BFF1
:10300C006369A360F2E70020F7E700BF040000202B
:10301C00303D0008503D0008103D00088A892DE91C
:10302C00F041054610070C4658D44B68002B05DCC4
:10303C000B6C002B02DC0020BDE8F081E66A002E50
:10304C00F9D0002312F480522F68216A2B6032D001
:10305C00606DA3895A0705D56368C01A636B0BB101
:10306C00236CC01A00230246E66A216A2846B04740
:10307C00431CA38906D129681D2948D8294ACA406E
:10308C00D60744D5002262602269D904226004D597
:10309C00421C01D12B6803B96065616B2F6000295C
:1030AC00C9D004F14403994202D0284600F094F9A7
:1030BC0000206063C0E701232846B047411CC8D1FB
:1030CC002B68002BC5D01D2B01D0162B01D12F60E6
:1030DC00B1E7A38943F04003A381ADE70F69002F4B
:1030EC00A9D0930718BF00230E6808BF4B69A6EB45
:1030FC0007080F608B60B8F1000F9CDD43463A4621
:10310C00216A2846A66AB047002806DCA38943F04A
:10311C004003A3814FF0FF308EE70744A8EB000873
:10312C00E9E700BF0100402038B50B6905460C46A5
:10313C00DBB118B183690BB900F060F80C4B9C4201
:10314C0009D16C68B4F90C307BB121462846BDE836
:10315C003840FFF763BF074B9C4201D1AC68F1E7E5
:10316C00054B9C4208BFEC68ECE7002038BD00BF63
:10317C00303D0008503D0008103D0008002310B5FC
:10318C000446C0E90033836081814366C281C0E993
:10319C0004338361194608225C30FFF7FBFD054BB5
:1031AC0024626362044BA362044BE362044B23630B
:1031BC0010BD00BFD93A0008FB3A0008333B0008A9
:1031CC00573B0008014900F085B800BF35310008B5
:1031DC0070B568254A1E55430E4605F1740100F082
:1031EC0047F9044640B10021C0E900160C30A0603C
:1031FC0005F16802FFF7CEFD204670BD836910B55E
:10320C00044633BBC0E912330365124B124A1B68E8
:10321C008262984204BF0123836100F01FF8606052
:10322C00204600F01BF8A060204600F017F80022A2
:10323C00E06004216068FFF7A1FF01220921A0686A
:10324C00FFF79CFF02221221E068FFF797FF012392
:10325C00A36110BD0C3D0008D1310008F8B51B4B23
:10326C0007461E68B36913B93046FFF7C7FF4836E7
:10327C00D6E90134013B03D5336833B13668F7E73F
:10328C00B4F90C506DB16834F4E704213846FFF7FB
:10329C009FFF30600028F1D10C2304463B60204690
:1032AC00F8BD0B4B6566C4E90055A560C4E9033550
:1032BC00C4E905550822294604F15C00FFF76AFDB4
:1032CC00C4E90D55C4E91255E9E700BF0C3D0008EF
:1032DC000100FFFF2DE9F84380468946002600F1E6
:1032EC00480414B93046BDE8F883D4E90175013FB0
:1032FC0001D52468F5E7AB89012B07D9B5F90E3058
:10330C00013303D029464046C84706436835EEE7EB
:10331C0070B50E46B1F90E1096B0002914461D4634
:10332C0007DA00232B60B3891A0610D44FF480639C
:10333C000EE06A4600F030FC0028F2DB019A02F441
:10334C007042A2F500535A425A412A60EEE74023DC
:10335C000020236016B070BD8B8973B59D0706469F
:10336C000C4607D504F147032360236101236361F5
:10337C0002B070BD01AB6A46FFF7CAFF0099054663
:10338C00304600F075F848B9B4F90C309A05EFD412
:10339C0023F0030343F00203A381E3E70D4BB36275
:1033AC00A389206043F08003A381009B20616361AB
:1033BC00019B5BB1B4F90E10304600F0FFFB28B155
:1033CC00A38923F0030343F00103A381A3891D43C5
:1033DC00A581CDE7D131000838B50546002943D089
:1033EC0051F8043C0C1F002BB8BFE41800F016FC7D
:1033FC001E4A1368104633B9636014602846BDE852
:10340C00384000F00CBCA3420BD9216862189342DF
:10341C0001BF1A685B685218226063600460EDE7B4
:10342C0013465A680AB1A242FAD919685818A04230
:10343C000BD120680144581882421960DED1106803
:10344C005268014419605A60D8E702D90C232B60EA
:10345C00D4E7206821188A4201BF11685268091804
:10346C00216062605C60C9E738BD00BF0C010020C0
:10347C0070B5CD1C25F0030508350C2D38BF0C2577
:10348C00002D064601DBA94203D90C233360002032
:10349C0070BD00F0C3FB214A1468214691B9204C41
:1034AC0023681BB9304600F001FB206029463046EA
:1034BC0000F0FCFA431C24D10C233046336000F09E
:1034CC00AEFBE4E70B685B1B18D40B2B0FD90B601E
:1034DC00CC18CD50304600F0A2FB04F10B00231D9C
:1034EC0020F00700C31AD3D05A42E250D0E74B6801
:1034FC008C4216BF636013600C46EBE70C464968C0
:10350C00CCE7C41C24F00304A04205D0211A304699
:10351C0000F0CCFA0130CFD02560DBE70C010020A5
:10352C0010010020936810B4013B002B936007DA64
:10353C009469A34201DB0A2902D110BCFFF7AEBC8F
:10354C001368581C10601970084610BC7047F8B509
:10355C0006460F461446D518AC4201D1002007E0B0
:10356C003A4614F8011B3046FFF7DCFF431CF3D13D
:10357C00F8BD00002DE9F04F9DB00C4617460393A3
:10358C00064618B183690BB9FFF738FE7B4B9C429A
:10359C0057D17468A38918075DD52369002B5AD0BD
:1035AC000023099320238DF8293030234FF0010B91
:1035BC008DF82A30B846454615F8013B0BB1252B42
:1035CC0054D1B8EB070A0BD053463A462146304645
:1035DC00FFF7BDFF013000F0C280099B53440993F3
:1035EC0098F80030002B00F0BA8000234FF0FF3227
:1035FC00CDE90523049307938DF853301A93A8460D
:10360C00052218F8011B5E4800F0FAFA049B78BBFF
:10361C00D90644BF20228DF853201A0744BF2B2211
:10362C008DF853202A782A2A2AD0A84600200A2569
:10363C00079A414611F8013B303B092B69D960B31D
:10364C0024E0504B9C4201D1B468A3E74E4B9C4202
:10365C0008BFF4689EE721463046FFF771FC00284E
:10366C009ED04FF0FF301DB0BDE8F08FA846A2E70A
:10367C00434A4546801A0BFA00F018430490BEE703
:10368C00039A111D12680391002A01DB079204E0D2
:10369C00524243F002030792049398F800302E2B09
:1036AC000ED198F801302A2B38D1039B08F102086F
:1036BC001A1D1B680392002BB8BF4FF0FF33059304
:1036CC00324D032298F80010284600F099FA40B1C8
:1036DC004023401B03FA00F0049B08F1010803434C
:1036EC00049398F800100622294808F101078DF878
:1036FC00281000F085FA002837D0264B1BBB039B03
:10370C00073323F0070308330393099B4B440993B6
:10371C0050E705FB0232012088468AE700230A2580
:10372C00194608F101080593404610F8012B303A70
:10373C00092A03D9002BC3D00591C1E705FB012150
:10374C0001238046F0E703AB00932246124B04A9F9
:10375C003046AFF30080B0F1FF3F8146D5D1A3894D
:10376C005B063FF57EAF09987DE703AB00932246DD
:10377C00094B04A9304600F087F8ECE7303D00080F
:10378C00703D0008503D0008103D0008763D0008D3
:10379C007A3D0008000000005B3500082DE9F04779
:1037AC0091461F468A680B6906469342B8BF13467A
:1037BC00C9F8003091F843200C46DDF8208012B196
:1037CC000133C9F800302368990642BFD9F800309C
:1037DC000233C9F80030256815F0060507D104F14D
:1037EC00190AE368D9F800209B1AAB4229DC94F83B
:1037FC0043302268003318BF012392062ED404F103
:10380C00430239463046C047013021D02368E56871
:10381C0003F00603042B18BF0025D9F800204FF045
:10382C00000908BFAD1AA368226908BF25EAE5752F
:10383C009342C4BF9B1AED181A344D451AD100207F
:10384C0008E00123524639463046C047013003D1C7
:10385C004FF0FF30BDE8F0870135C2E73020E118AA
:10386C0081F843005A1C94F845102244023382F824
:10387C004310C4E70123224639463046C047013085
:10388C00E6D009F10109D8E72DE9F04301F1430C29
:10389C000C46097E85B06E291746064698460C9A4A
:1038AC0000F0B38022D8632936D00AD8002900F062
:1038BC00B980582900F0838004F1420584F8421045
:1038CC0032E0642901D06929F6D120681368050615
:1038DC0003F104012AD51B681160002B03DA2D2299
:1038EC005B4284F843206F480A2239E0732900F0C8
:1038FC009D8008D86F2920D07029DDD1236843F032
:10390C002003236003E0752917D07829D4D17823BC
:10391C00654884F8453055E0136804F14205191DDB
:10392C001B68116084F8423001238CE01B6810F096
:10393C00400F116018BF1BB2CFE713682568181D24
:10394C001060280601D51B6802E06806FBD51B88B1
:10395C006F2914BF0A2208225248002184F8431010
:10396C006568002DA560C0F29580216821F00401E6
:10397C002160002B3DD1002D40F08E806546082A39
:10398C000BD12368DB0708D5236962689A42DEBF36
:10399C00302305F8013C05F1FF35ACEB0503236141
:1039AC00CDF800803B4603AA21463046FFF7F6FED1
:1039BC0001304DD14FF0FF3005B0BDE8F0833948F0
:1039CC0084F84510136821681D1D1B6815600A06D4
:1039DC000BD5CA0744BF41F0200121601BB92268F6
:1039EC0022F0200222601022B7E74D0648BF9BB29E
:1039FC00EFE76546B3FBF2F102FB1133C35C05F84C
:103A0C00013D0B460029F5D1B9E713682568181D4F
:103A1C006169106028061B6801D5196002E06A060E
:103A2C00FBD51980002365462361B9E71368191D7E
:103A3C0011601D6862680021284600F0E1F808B1A9
:103A4C00401B606063682361002384F84330A7E760
:103A5C0023692A4639463046C0470130AAD023682C
:103A6C009B0713D4E068039B9842B8BF1846A3E7A2
:103A7C0001234A4639463046C04701309AD00135B9
:103A8C00E368039A9B1AAB42F2DCEBE7002504F1E6
:103A9C001909F5E7002BACD1037804F1420584F841
:103AAC0042306CE7813D0008923D000838B5002398
:103ABC00054C054608462360FEF70AFE431C02D15E
:103ACC00236803B12B6038BD6002002010B50C4692
:103ADC00B1F90E1000F0A4F80028ABBF636DA389F8
:103AEC001B1823F48053ACBF6365A38110BD2DE973
:103AFC00F0411F468B890546DB050C46164605D55D
:103B0C0002230022B1F90E1000F068F8A3893246A6
:103B1C0023F48053A381B4F90E103B462846BDE82C
:103B2C00F04100F017B810B50C46B1F90E1000F0CA
:103B3C0055F8431CA38915BF606523F4805343F4E7
:103B4C008053A38118BFA38110BDB1F90E1000F0F2
:103B5C0013B8000038B50546084611460022054C3E
:103B6C0022601A46FEF7A6FD431C02D1236803B15E
:103B7C002B6038BD6002002038B50023054C05468B
:103B8C0008462360FEF7C2FD431C02D1236803B133
:103B9C002B6038BD6002002038B50023064C05466A
:103BAC00084611462360FEF7B4FD431C02D123687E
:103BBC0003B12B6038BD00BF6002002038B5002374
:103BCC00054C054608462360FEF7A8FD431C02D1B0
:103BDC00236803B12B6038BD6002002038B5054660
:103BEC00084611460022054C22601A46FEF798FD45
:103BFC00431C02D1236803B12B6038BD6002002046
:103C0C0010B5C9B202449042034601D1002303E02F
:103C1C001C7801308C42F6D1184610BD70477047A5
:103C2C0038B50546084611460022054C22601A4656
:103C3C00FEF732FD431C02D1236803B12B6038BD63
:103C4C0060020020F8B500BFF8BC08BC9E46704767
:0C3C5C00F8B500BFF8BC08BC9E467047DD
:103C680002030405060708090A0B0C0D0E0F1010B5
:103C78000102000002030405060708090A0B0C0DDF
:103C88000E0F1010010200000000000000000000EC
:103C980001020304060708090000000001020304EA
:103CA8004500050450045400040540054D6F746F29
:103CB800722073746172747570202E2E2E0D0000A0
:103CC8004D6F746F722072756E6E696E67202E2E3E
:103CD8002E0D00005370656564536574203D2025E2
:103CE800640D0A0002010002010000000100010049
:103CF80001000001000100010102030405000500A4
:103D08000102030408000020000000000000000079
:103D1800000000000000000000000000000000009B
:103D2800000000000000000000000000000000008B
:103D3800000000000000000000000000000000007B
:103D4800000000000000000000000000000000006B
:103D5800000000000000000000000000000000005B
:103D68000000000000000000232D302B2000686CAC
:103D78004C00656667454647003031323334353686
:103D880037383941424344454600303132333435BF
:0C3D9800363738396162636465660000EC
:043DA40031010008E1
:043DA8000D01000801
:103DAC0000A24A040800002000000000303D00087A
:103DBC00503D0008103D000800000000000000000D
:103DCC0000000000000000000000000000000000E7
:103DDC0000000000000000000000000000000000D7
:103DEC0000000000000000000000000000000000C7
:103DFC0000000000000000000000000000000000B7
:083E0C000000000000000000AE
:0400000508002D0DB5
:00000001FF
