:020000040800F2
:1000000000500020A50E0008C9040008CB04000819
:10001000CD040008CF040008D1040008000000004F
:10002000000000000000000000000000D3040008F1
:10003000D504000800000000D7040008D904000817
:10004000ED0E0008ED0E0008ED0E0008ED0E0008A4
:10005000ED0E0008ED0E0008ED0E0008ED0E000894
:10006000ED0E0008ED0E0008ED0E0008ED0E000884
:10007000ED0E0008ED0E0008ED0E0008ED0E000874
:10008000ED0E0008ED0E0008ED0E0008ED0E000864
:10009000ED0E0008ED0E0008ED0E0008ED0E000854
:1000A000ED0E0008ED0E0008ED0E0008ED0E000844
:1000B000ED0E0008ED0E0008ED0E0008ED0E000834
:1000C000ED0E0008ED0E0008ED0E0008ED0E000824
:1000D000ED0E0008ED0E0008ED0E0008ED0E000814
:1000E000ED0E0008ED0E0008ED0E00080000000007
:1000F0000000000000000000000000000000000000
:0C01000000000000000000005FF808F1A3
:10010C0010B5054C237833B9044B13B10448AFF345
:10011C0000800123237010BD0400002000000000AB
:10012C00380F00080C4B43B10C4810B50C49AFF319
:10013C0000800C48036823B910BD0A48036833B922
:10014C007047094B002BF7D0BDE810401847064B01
:10015C00002BF5D0184700BF00000000380F000836
:10016C00080000200400002000000000074AD368AB
:10017C0023F4E0631B041B0C000200F4E060184342
:10018C0040F0BF6040F40030D060704700ED00E0FC
:10019C0030B4164BDB68C3F30223C3F10704042C01
:1001AC0028BF04241D1D062D17D9033B012505FA74
:1001BC0004F4013C2140994005FA03F3013B134040
:1001CC00194300280BDB0901C9B200F1604000F5AE
:1001DC00614080F8001330BC70470023E6E700F064
:1001EC000F000901C9B2024B1954F4E700ED00E00D
:1001FC0014ED00E00138B0F1807F0AD2064B586054
:10020C00F021064A82F823100020986007221A6019
:10021C0070470120704700BF10E000E000ED00E0E7
:10022C00042805D0054A136823F0040313607047B3
:10023C00024A136843F004031360704710E000E0B7
:10024C007047000010B5044600F062FD064BA3FB9E
:10025C0000308009FFF7CEFF002221464FF0FF301F
:10026C00FFF796FF002010BDD34D621008B5074A6A
:10027C00136843F0100313600320FFF777FF0F2080
:10028C00FFF7E0FFFFF7DCFF002008BD0020024075
:10029C00024A136801331360704700BF200000202E
:1002AC00014B1868704700BF2000002010B582B0C9
:1002BC000190FFF7F5FF0446FFF7F2FF001B019BCF
:1002CC009842F9D302B010BDF0B583B00026344685
:1002DC0071E0002D00F0A180012D00D1CE68FF2B24
:1002EC0000F2AF808646FF2B00F2AE80A500DEF850
:1002FC0000200F27AF4022EA070206FA05F52A4331
:10030C00CEF800204A6812F0805F53D0634A95699A
:10031C0045F001059561926902F001020192019A82
:10032C00A508AF1C5E4A52F8272004F00307BF0053
:10033C004FF00F0E0EFA07FE22EA0E02DFF870E104
:10034C00704500F088800EF5806E704500F0868058
:10035C000EF5806E704500F084800EF5806E704551
:10036C0076D04FF0040E0EFA07F73A4302354C4F95
:10037C0047F825204A6812F4803F75D0494D2A6809
:10038C001A432A604A6812F4003F73D0454D6A68DC
:10039C001A436A604A6812F4801F71D0414DAA68F2
:1003AC001A43AA604A6812F4001F6FD03D4DEA68E8
:1003BC001343EB6001340F2C6ED80122A2400B6862
:1003CC0013409A42F6D14D68122D30D00BD8022D25
:1003DC002AD07FF67EAF032D2FD0112D7FF47FAF67
:1003EC00CE6804367BE7304FBD4216D00CD92F4F68
:1003FC00BD4212D007F58037BD420ED0A7F580174D
:10040C00BD427FF46CAF08E0A7F58017BD4204D065
:10041C0007F58037BD427FF462AF8D687DB1012D49
:10042C0008D0426108265AE7CE68083657E7CE68EE
:10043C000C3654E70261082651E700264FE70426E4
:10044C004DE700F1040E4EE7A4F10805AD004EE7B0
:10045C004FF0030E87E74FF0000E84E74FF0010ECC
:10046C0081E74FF0020E7EE70E4D2A6822EA030266
:10047C002A6087E70B4D6A6822EA03026A6089E703
:10048C00084DAA6822EA0302AA608BE7054DEA68C8
:10049C0022EA0303EB608DE703B0F0BD00100240CD
:1004AC000000014000040140000021100000311048
:1004BC0000080140C3685940C16070477047FEE7AF
:1004CC00FEE7FEE7FEE770477047704708B5FFF799
:1004DC00DFFE08BD30B583B00446036813F0010F8E
:1004EC005CD0B04B5B6803F00C03042B3FD0AD4BDE
:1004FC005B6803F00C03082B34D06368B3F5803FC2
:10050C0000F08780002B40F08A8003F1804303F5D4
:10051C0004331A6822F480321A601A6822F480229A
:10052C001A606368002B00F09480FFF7B9FE054653
:10053C004FF4003393FAA3F39A4B1A684FF4003339
:10054C0093FAA3F3B3FA83F303F01F0322FA03F332
:10055C0013F0010F22D1FFF7A3FE401B6428E7D94B
:10056C0003209CE28F4B5B6813F4803FC5D04FF4A3
:10057C00003393FAA3F38B4B1A684FF4003393FABE
:10058C00A3F3B3FA83F303F01F0322FA03F313F07C
:10059C00010F03D06368002B00F07A82236813F0FC
:1005AC00020F00F09C807F4B5B6813F00C0F72D035
:1005BC007C4B5B6803F00C03082B67D02369002B82
:1005CC0000F0C880012292FAA2F3B3FA83F39B00E5
:1005DC0003F1844303F584031A60FFF761FE0546BB
:1005EC00022393FAA3F36F4B1A68022393FAA3F333
:1005FC00B3FA83F303F01F0322FA03F313F0010F92
:10060C0040F09980FFF74CFE401B0228E8D90320EC
:10061C0045E2644A136843F48033136081E7B3F511
:10062C00A02F09D05F4B1A6822F480321A601A6826
:10063C0022F480221A6074E703F18043A3F53C3363
:10064C001A6842F480221A601A6842F480321A60E6
:10065C0067E7FFF725FE05464FF4003393FAA3F343
:10066C00504B1A684FF4003393FAA3F3B3FA83F3A5
:10067C0003F01F0322FA03F313F0010F8ED0FFF7E0
:10068C000FFE401B6428E7D9032008E2454B5B684A
:10069C0013F4803F92D1022393FAA3F3414B1A68CF
:1006AC00022393FAA3F3B3FA83F303F01F0322FAA2
:1006BC0003F313F0010F04D02369012B01D00120A7
:1006CC00EDE13848036823F0F8036169F82292FAE7
:1006DC00A2F2B2FA82F201FA02F213430360236827
:1006EC0013F0080F65D0A369002B00F09F80012246
:1006FC0092FAA2F3B3FA83F32B4941F82320FFF7C4
:10070C00CFFD0546022393FAA3F293FAA3F2254AEE
:10071C00526A93FAA3F3B3FA83F303F01F0322FA9A
:10072C0003F313F0010F41D1FFF7BAFD401B022870
:10073C00E8D90320B3E11B48036823F0F80361698F
:10074C00F82292FAA2F2B2FA82F201FA02F21343FE
:10075C000360C4E7012393FAA3F3B3FA83F39B007A
:10076C0003F1844303F5840300221A60FFF798FD1C
:10077C000546022393FAA3F30A4B1A68022393FA51
:10078C00A3F3B3FA83F303F01F0322FA03F313F07A
:10079C00010FA4D0FFF784FD401B0228E9D90320E8
:1007AC007DE100BF00100240800442420120FFF7AF
:1007BC007DFD236813F0040F5DD1E369002B00F07D
:1007CC006D81B94A526802F00C02082A00F0698166
:1007DC00022B00F0F0804FF0807393FAA3F3B3FA7E
:1007EC0083F39B0003F1844303F5840300221A6016
:1007FC00FFF756FD04464FF0007393FAA3F3AA4B90
:10080C001A684FF0007393FAA3F3B3FA83F303F06F
:10081C001F0322FA03F313F0010F00F03781FFF7E7
:10082C003FFD001B0228E6D9032038E1012393FA8F
:10083C00A3F3B3FA83F300219C4A42F82310FFF789
:10084C002FFD0546022393FAA3F293FAA3F2964ADC
:10085C00526A93FAA3F3B3FA83F303F01F0322FA59
:10086C0003F313F0010FA4D0FFF71AFD401B02286D
:10087C00E8D9032013E18C4BDA6942F08052DA613B
:10088C00DB6903F080530193019B894A136843F49D
:10089C0080731360FFF704FD0546854B1B6813F44A
:1008AC00807F06D1FFF7FCFC401B6428F5D90320A0
:1008BC00F5E0E368012B13D0C3B903F1804303F5D2
:1008CC0004331A6A22F001021A621A6A22F0040234
:1008DC001A62E368002B45D0FFF7E2FC054632E0D4
:1008EC00714A136A43F001031362F2E7052B09D036
:1008FC006D4B1A6A22F001021A621A6A22F0040283
:10090C001A62E6E7684B1A6A42F004021A621A6A23
:10091C0042F001021A62DCE7634B1A6A022393FA73
:10092C00A3F3B3FA83F303F01F0322FA03F313F0D8
:10093C00010F7FF442AFFFF7B3FC401B41F2883349
:10094C00984200F2A780022393FAA3F293FAA3F33E
:10095C00B3FA83F35B0943F00203022BDCD0524B56
:10096C005A6ADBE7FFF79CFC054615E04E4B1A6A0A
:10097C00022393FAA3F3B3FA83F303F01F0322FACF
:10098C0003F313F0010F3FF418AFFFF789FC401B82
:10099C0041F2883398427FD8022393FAA3F293FA58
:1009AC00A3F3B3FA83F35B0943F00203022BDDD00C
:1009BC003D4B5A6ADCE74FF0807393FAA3F3B3FA1A
:1009CC0083F39B0003F1844303F5840300221A6034
:1009DC00FFF766FC05464FF0007393FAA3F3324B16
:1009EC001A684FF0007393FAA3F3B3FA83F303F08E
:1009FC001F0322FA03F313F0010F06D0FFF750FC8C
:100A0C00401B0228E7D9032049E0236AB3F5803F55
:100A1C0032D025494B6823F47413226A606A02436E
:100A2C0013434B604FF0807393FAA3F3B3FA83F341
:100A3C009B0003F1844303F5840301221A60FFF742
:100A4C002FFC04464FF0007393FAA3F3164B1A686D
:100A5C004FF0007393FAA3F3B3FA83F303F01F037D
:100A6C0022FA03F313F0010F0ED1FFF719FC001B50
:100A7C000228E7D9032012E00B4A536823F4003311
:100A8C00A1680B435360C4E7002008E0002006E097
:100A9C00012004E0032002E0032000E0002003B06A
:100AAC0030BD0120FBE700BF001002408004424231
:100ABC000070004010B586B01C4C94E80F000DF18E
:100ACC00180E0EE90F00238AADF80430184B5B6842
:100ADC0003F00C02082A26D103F470124FF47011A3
:100AEC0091FAA1F1B1FA81F1CA40724412F8100CDA
:100AFC0013F4803F03D10F4B03FB00F014E00C4BBD
:100B0C005B6803F400334FF4003292FAA2F2B2FAAB
:100B1C0082F2D340734413F8142C074BB3FBF2F35B
:100B2C0003FB00F000E0044806B010BD500F0008B5
:100B3C000010024000093D0000127A00704B1B6847
:100B4C0003F007038B420CD26D4A136823F00703A2
:100B5C000B431360136803F00703994201D0012083
:100B6C00704770B5036813F0020F06D0654A5368DE
:100B7C0023F0F0038468234353600D460446036856
:100B8C0013F0010F7AD04368012B2FD0022B42D0E7
:100B9C00022292FAA2F25B4A1168022292FAA2F2A3
:100BAC00B2FA82F202F01F0221FA02F212F0010FE5
:100BBC0000F0A48053494A6822F0030213434B60AF
:100BCC00FFF76EFB06466368012B39D0022B46D02B
:100BDC004C4B5B6813F00C0F50D0FFF761FB801B84
:100BEC0041F288339842F3D9032070BD4FF40032A0
:100BFC0092FAA2F2434A11684FF4003292FAA2F22E
:100C0C00B2FA82F202F01F0221FA02F212F0010F84
:100C1C00D0D1012070BD4FF0007292FAA2F2394A85
:100C2C0011684FF0007292FAA2F2B2FA82F202F05C
:100C3C001F0221FA02F212F0010FBBD1012070BD8C
:100C4C00304B5B6803F00C03042B17D0FFF728FB29
:100C5C00801B41F288339842F2D9032070BD294B96
:100C6C005B6803F00C03082B08D0FFF719FB801B03
:100C7C0041F288339842F2D9032070BD204B1B6897
:100C8C0003F007039D420CD21D4A136823F007039F
:100C9C002B431360136803F007039D4201D001201E
:100CAC0070BD236813F0040F06D0164A536823F462
:100CBC00E063E1680B435360236813F0080F07D01F
:100CCC00104A536823F46053216943EAC10353600B
:100CDC00FFF7F0FE0B4B5B6803F0F003F02292FA87
:100CEC00A2F2B2FA82F2D340074AD35CD840074B47
:100CFC0018600F20FFF7A6FA002070BD012070BD10
:100D0C000020024000100240640F00080000002088
:100D1C00014B1868704700BF0000002000B583B07D
:100D2C00154B9A6942F001029A619B6903F0010329
:100D3C000193019B114A536823F0E06343F0007365
:100D4C005360536843F004035360FFF78FFA00F0CD
:100D5C0019F800F077F86420FFF7A8FA084C08217E
:100D6C002046FFF7A7FB10212046FFF7A3FB20210D
:100D7C002046FFF79FFBEEE7001002400000014009
:100D8C00000C014070B590B0022506950024079424
:100D9C00099401230A9310230B9308940D950E9438
:100DAC004FF460130F9306A8FFF794FB0F260196E0
:100DBC000295039405944FF480630493294601A88B
:100DCC00FFF7BCFEFFF7A4FF084BA3FB0030800924
:100DDC00FFF710FA0420FFF723FA224631464FF0B2
:100DEC00FF30FFF7D5F910B070BD00BFD34D6210C6
:100DFC0010B586B0114B9A6942F008029A619B6952
:100E0C0003F008030193019B012303930023049334
:100E1C000323059306A9382341F8103D084C2046BE
:100E2C00FFF752FA4FF4002323614FF48013236130
:100E3C004FF40013236106B010BD00BF0010024038
:100E4C00000C014008B5FFF7D3FF08BD0F4B1A6823
:100E5C0042F001021A6059680D4A0A405A601A6839
:100E6C0022F0847222F480321A601A6822F48022F2
:100E7C001A605A6822F4FE025A604FF41F029A60FC
:100E8C004FF00062034B9A60704700BF00100240A5
:100E9C000000FFF800ED00E0002103E00B4B5B5875
:100EAC00435004310A480B4B42189A42F6D30A4A73
:100EBC0002E0002342F8043B084B9A42F9D3FFF7B7
:100ECC00C5FF00F00FF8FFF729FF70477C0F0008F3
:100EDC00000000200400002004000020240000205A
:100EEC00FEE7000070B500250C4E0D4CA41BA410A1
:100EFC00A54209D100F01AF800250A4E0A4CA41B91
:100F0C00A410A54205D170BD56F82530984701357F
:100F1C00EEE756F8253098470135F2E7740F0008D4
:100F2C00740F0008740F0008780F0008F8B500BFA4
:100F3C00F8BC08BC9E467047F8B500BFF8BC08BCAE
:040F4C009E46704706
:100F500002030405060708090A0B0C0D0E0F1010FA
:100F60000102000000000000000000000102030474
:040F7000060708095F
:040F7400310100083F
:040F78000D0100085F
:040F7C0000A24A0481
:0400000508000EA53C
:00000001FF
